:020000040000FA
:0400000003EF00F01A
:020004000000FA
:0A00060085EC00F0FF0E896E000E7D
:100010008A6E500E8B6E000000008B2E0BEF00F0EE
:100020008A2E09EF00F0896AFF0E896E010E8A6E32
:10003000500E8A6E500E8B6E000000008B2E1CEF4F
:1000400000F08A2E1AEF00F08A2E18EF00F0896A6D
:10005000010E8A6E500E8A6E500E8B6E00000000EC
:100060008B2E2EEF00F08A2E2CEF00F08A2E2AEF36
:1000700000F0FF0E896E010E8A6E500E8A6E500ED1
:100080008B6E000000008B2E41EF00F08A2E3FEFB8
:1000900000F08A2E3DEF00F0896A010E8A6E500E44
:1000A0008A6E500E8B6E000000008B2E53EF00F016
:1000B0008A2E51EF00F08A2E4FEF00F0FF0E896E6E
:1000C000030E8A6E500E8A6E500E8B6E000000007A
:1000D0008B2E66EF00F08A2E64EF00F08A2E62EF1E
:1000E00000F0896A010E8A6E500E8A6E500E8B6E79
:1000F000000000008B2E78EF00F08A2E76EF00F0E3
:100100008A2E74EF00F083EF00F0926A896A120081
:080110006161616161610000A1
:1003000001020000000000000201010100000000E5
:1003100002010201000000000201010000000000D3
:1003200001000000000000000101020100000000C7
:1003300002020100000000000101010100000000B4
:1003400001010000000000000102020200000000A4
:100350000201020000000000010201010000000093
:100360000202000000000000020100000000000086
:100370000202020000000000010202010000000071
:100380000202010200000000010201000000000062
:100390000101010000000000020000000000000058
:1003A0000101020000000000010101020000000044
:1003B0000102020000000000020101020000000032
:1003C0000201020200000000020201010000000020
:020000040030CA
:0100010008F6
:010002001FDE
:0100030000FC
:010005008377
:010006008178
:010008000FE8
:01000900C036
:01000A000FE6
:01000B00E014
:01000C000FE4
:01000D0040B2
:00000001FF
