:020000040000FA
:100000000C0E016EFE0E896E8A6E020E89268950D4
:100010001CEC00F0016004EF00F08B6E89908942C7
:1000200089CF02F001508B5E8A50015C8A6E8B5042
:100030008A6402067AEF00F0F926000C040C090C21
:100040000D0C120C160C1B0C1F0C240C280C2C0C69
:10005000310C350C3A0C3E0C420C470C4B0C4F0C3F
:10006000530C580C5C0C600C640C680C6C0C700C21
:10007000740C780C7C0C800C840C880C8B0C8F0C12
:10008000930C960C9A0C9E0CA10CA50CA80CAB0C16
:10009000AF0CB20CB50CB80CBB0CBE0CC10CC40C34
:1000A000C70CCA0CCC0CCF0CD20CD40CD70CD90C6E
:1000B000DB0CDE0CE00CE20CE40CE60CE80CEA0CC9
:1000C000EC0CED0CEF0CF10CF20CF30CF50CF60C47
:1000D000F70CF80CF90CFA0CFB0CFC0CFD0CFE0CEC
:1000E000FE0CFF0CFF0CFF0CFF0CFF0CFF0CFF0CB9
:0600F000550E026E000037
:0200F600000008
:020000040030CA
:0100010008F6
:010003001EDE
:00000001FF
